:020000040800F2
:1000000000000120051A000821040008230400084C
:100010002504000827040008290400080000000047
:10002000000000000000000000000000211800088F
:100030002B04000800000000B1180008F5180008A3
:100040004D1A00084D1A00084D1A00084D1A0008F4
:100050004D1A00084D1A00084D1A00084D1A0008E4
:100060004D1A00084D1A00084D1A00084D1A0008D4
:100070004D1A00084D1A00084D1A00084D1A0008C4
:100080004D1A00084D1A00084D1A00084D1A0008B4
:100090004D1A00084D1A00084D1A00084D1A0008A4
:1000A0004D1A00082D0400084D1A00084D1A0008CA
:1000B0004D1A00084D1A00084D1A00084D1A000884
:1000C0004D1A00084D1A00084D1A00084D1A000874
:1000D0004D1A00084D1A00084D1A00084D1A000864
:1000E0004D1A00084D1A00084D1A00084D1A000854
:1000F0004D1A00084D1A00084D1A00084D1A000844
:100100004D1A00084D1A00084D1A00084D1A000833
:100110004D1A00084D1A00084D1A00084D1A000823
:100120004D1A00084D1A00084D1A00084D1A000813
:1001300000000000000000000000000000000000BF
:1001400000000000000000000000000000000000AF
:10015000000000000000000000000000000000009F
:10016000000000000000000000000000000000008F
:10017000000000000000000000000000000000007F
:10018000000000000000000000000000000000006F
:10019000000000000000000000000000000000005F
:1001A000000000000000000000000000000000004F
:1001B000000000000000000000000000000000003F
:1001C000000000000000000000000000000000002F
:1001D000000000000000000000000000000000001F
:0401E0005FF8E0F1F3
:1001F0000348044B834202D0034B03B118477047B6
:1002000010000020100000200000000005480649F2
:100210000B1AD90F01EBA301491002D0034B03B114
:100220001847704710000020100000200000000058
:1002300010B5064C237843B9FFF7DAFF044B13B12E
:100240000448AFF300800123237010BD100000208C
:1002500000000000501A000808B5044B1BB1044907
:100260000448AFF30080BDE80840CFE7000000007D
:1002700014000020501A000870B50D4E0D4D761B6D
:10028000B61006D00024013455F8043B9847A64226
:10029000F9D1094E094D01F0DBFB761BB61006D0F3
:1002A0000024013455F8043B9847A642F9D170BDAB
:1002B000C01A0008C01A0008C41A0008C01A0008B2
:1002C000F0B4860746D0541E002A3CD0CAB203467A
:1002D00002E014F1FF3436D303F8012B9D07F8D167
:1002E000032C29D9CDB245EA05250F2C45EA054551
:1002F00033D9A4F11006360903F1200707EB0617DE
:1003000003F1100242E9045542E902551032BA42A3
:10031000F8D1721C14F00C0F03EB021204F00F065C
:1003200013D0331F23F003030433134442F8045B58
:100330009342FBD106F003042CB1C9B21C4403F86C
:10034000011B9C42FBD1F0BC704734461346002C85
:10035000F3D1F8E714460346C2E71A462646E0E71B
:1003600008B5012001F02BF9FBE700B591B024227C
:10037000002107A8FFF7A4FF1422002101A8FFF71E
:100380009FFF022301210693102306A8CDE90A133B
:1003900000F0DAF8014608B172B6FEE70F23CDE9A6
:1003A0000300CDE90130059001A800F0A3FA08B1DF
:1003B00072B6FEE711B05DF804FB000000B50B4D0E
:1003C00089B001AC00F09CF8FFF7CFFF0FCD0FC450
:1003D00095E8070084E80700002101A801F0C7F8AC
:1003E000034B186001F0BEF8FEE700BF681A000872
:1003F000C80F00200268034B9A4201D100F092B866
:10040000704700BF002C0140034B0360034B0B609F
:1004100080231360704700BF2C0200202C000020B6
:10042000FEE7FEE7FEE7FEE7FEE77047014800F063
:10043000B5BB00BFCC0F0020114B07B59A690F2147
:1004400042F001029A619A696FF0010002F0010224
:100450000092009ADA6942F08052DA61DB69002288
:1004600003F080530193019B00F020FB054A536881
:1004700023F0E06343F08063536003B05DF804FB56
:10048000001002400000014010B5014688B0002273
:10049000192000F00BFB192000F03AFB144B01A9C6
:1004A0009A6903A842F400629A619B69114C03F4B3
:1004B00000630293029B00F0C9FA00F0B7FA0E4BFA
:1004C000236040F2E733E3600C4BB0FBF3F0002312
:1004D0000138606020462361A36000F04DFC20B924
:1004E000204600F025FB08B010BD0120FBE700BF4F
:1004F00000100240CC0F0020002C014040420F00B1
:10050000074A08B51368032043F01003136000F096
:10051000BBFA0F20FFF7B8FFFFF78EFF002008BDE2
:1005200000200240034A044B11681B780B441360FF
:10053000704700BF1410002000000020014B186815
:10054000704700BF141000202DE9F341054638B371
:100550000368DB0710D42B689F075ED42B6819074C
:1005600000F195802B685A0700F1BF80E8690028E8
:1005700040F02C81002029E08F4C636803F00C03CD
:10058000042B07D0636803F00C03082B0AD16368BF
:10059000DE0307D523689C03DDD56B68002BDAD119
:1005A000012013E06B68B3F5803F12D1236843F458
:1005B00080332360FFF7C2FF064623689803CAD43E
:1005C000FFF7BCFF801B6428F7D9032002B0BDE809
:1005D000F0819BB9236823F480332360236823F4DC
:1005E00080232360FFF7AAFF064623689903B2D54C
:1005F000FFF7A4FF801B6428F7D9E6E7B3F5A02F27
:10060000236803D143F480232360CFE723F48033AE
:100610002360236823F48023CBE7674C636813F0DF
:100620000C0F07D0636803F00C03082B10D163682C
:10063000DA030DD423689B0702D52B69012BAFD1B8
:1006400023686A6923F0F80343EAC203236085E75D
:100650002A695A4B6AB101221A60FFF76FFF0646FA
:1006600023689F07ECD4FFF769FF801B0228F7D9A6
:10067000ABE71A60FFF762FF0646236898077FF52D
:100680006DAFFFF75BFF801B0228F6D99DE7AA69D3
:10069000494E4B4BDAB101221A60FFF74FFF044677
:1006A000736A9B070DD54FF4FA52464B1B68B3FB98
:1006B000F2F3019300BF019B5A1E0192002BF9D166
:1006C00050E7FFF73BFF001B0228E9D97DE71A60DE
:1006D000FFF734FF0446736A9F077FF543AFFFF7C8
:1006E0002DFF001B0228F6D96FE7334CE369D800D1
:1006F00024D40127E36943F08053E361E36903F005
:1007000080530093009B304E3368D90518D5EB68B1
:10071000012B26D1236A43F001032362FFF70EFF6A
:1007200041F288380646236A9B073FD5002F3FF4E5
:100730001DAFE36923F08053E36117E70027E2E789
:10074000336843F480733360FFF7F8FE8046336804
:10075000DA05DCD4FFF7F2FEA0EB08006428F6D936
:1007600033E7ABB9236A41F2883823F001032362EF
:10077000236A23F004032362FFF7E0FE0646236AA0
:100780009807D3D5FFF7DAFE801B4045F7D91CE761
:10079000052B236A03D143F004032362BAE723F055
:1007A00001032362236A23F00403B6E7FFF7C6FEC2
:1007B000801B4045B7D908E70010024000004242C4
:1007C0008004424208000020007000402A4B5A6812
:1007D0001C4602F00C02082A3DD00023274E0228B6
:1007E00033602BD1FFF7AAFE0746236899011FD477
:1007F0002B6AB3F5803F05D16268A96822F4003204
:100800000A436260696A62680B4322F474121343FC
:10081000636001233360FFF791FE054623689A0168
:100820003FF5A8AEFFF78AFE401B0228F6D9CCE6BA
:10083000FFF784FEC01B0228D7D9C6E6FFF77EFE6D
:10084000054623689B017FF595AEFFF777FE401BB9
:100850000228F6D9B9E601283FF4B8AE5B682A6AE7
:1008600003F4803191427FF49BAE6A6A03F4701303
:1008700093423FF47FAE93E6001002406000424294
:1008800030B5184B87B002AC03F11005224618684A
:100890005968083303C2AB421446F7D140F2012332
:1008A0001149ADF804304B6803F00C02082A17D147
:1008B000C3F3834206A80244DB0312F8102C0CD5C4
:1008C0004B680A48C3F34043504306AA134413F845
:1008D000143CB0FBF3F007B030BD05485043FAE7D5
:1008E0000248F8E7901A00080010024000127A004F
:1008F00000093D002DE9F0410D46044610B90120E4
:10090000BDE8F081444A136803F007038B4228D303
:1009100021688E0730D4CA0743D43F4A136803F0D6
:100920000703AB4265D822683C4D12F0040F6CD12E
:10093000130706D56B68226923F4605343EAC203A8
:100940006B60FFF79DFF6B68354AC3F30313D35CFD
:10095000D840344B1860344B1868FFF795FD0020E1
:10096000CEE7136823F007030B431360136803F00B
:1009700007038B42C3D1CBE7284B11F0040F1EBFF6
:100980005A6842F4E0625A60080742BF5A6842F46B
:1009900060525A605A68A06822F0F00202435A601E
:1009A000B9E762681D4E012A33681AD113F4003F7B
:1009B000A5D0736841F2883823F0030313437360B2
:1009C000FFF7BCFD07467368626803F00C03B3EBE6
:1009D000820FA2D0FFF7B2FDC01B4045F3D9032020
:1009E0008EE7022A02D113F0007FE1E713F0020F35
:1009F000DEE7136823F007032B431360136803F04B
:100A00000703AB427FF47BAF8DE76B68E16823F4AB
:100A1000E0630B436B608BE7002002400010024054
:100A2000A11A00080800002004000020044B054A19
:100A30005B68C3F3C223D35C034A1068D840704795
:100A400000100240B11A0008080000200F230360C4
:100A50000B4B5A6802F0030242605A6802F0F0023F
:100A600082605A6802F4E062C2605B68DB0803F4EB
:100A7000E0630361034B1B6803F007030B607047DF
:100A8000001002400020024007490302CA6803F434
:100A9000E06322F4E0621204120C134343F0BF63DC
:100AA00043F40033CB60704700ED00E0164B30B5E7
:100AB000DC68C4F30224C4F10703251D042B28BFFE
:100AC0000423062D4FF0FF3598BF002405FA03F3E9
:100AD00088BF033C21EA0303A34005FA04F422EA99
:100AE0000402002843EA0203ACBF00F16040074A59
:100AF0004FEA0313DBB2ABBF00F5614000F00F001B
:100B000080F80033135430BD00ED00E014ED00E038
:100B1000002808DB0123420900F01F0003FA00F05F
:100B2000014B43F82200704700E100E070470000ED
:100B300090F83D30012B28D1022380F83D30036826
:100B4000DA6842F00102DA60114A934212D002F5EB
:100B5000006293420ED0B3F1804F0BD0A2F59832D1
:100B6000934207D002F58062934203D002F580627F
:100B7000934204D19A6802F00702062A03D01A6849
:100B800042F001021A60002070470120704700BF48
:100B9000002C01407047704770477047036810B5DC
:100BA0001A69044691070ED5DA6892070BD56FF0E3
:100BB00002021A61012202779B699B0777D0FFF737
:100BC000EAFF0023237723681A69500710D5DA68F3
:100BD00051070DD56FF004021A61022222779B693A
:100BE000204613F4407F68D0FFF7D5FF002323771A
:100BF00023681A6912070FD5DA6810070CD56FF051
:100C000008021A6104222277DB69204699075AD02C
:100C1000FFF7C1FF0023237723681A69D20610D596
:100C2000DA68D0060DD56FF010021A61082222771B
:100C3000DB69204613F4407F4BD0FFF7ACFF002365
:100C4000237723681A69D10708D5DA68D20705D552
:100C50006FF0010220461A61FFF7CCFB23681A6986
:100C6000100608D5DA68110605D56FF08002204617
:100C70001A6100F0AEF823681A69520608D5DA68DE
:100C8000500605D56FF0400220461A61FFF785FF38
:100C900023681A69910622D5DA6892061FD56FF08B
:100CA00020022046BDE810401A6100F091B8FFF71D
:100CB00071FF2046FFF770FF83E7FFF76BFF2046C9
:100CC000FFF76AFF92E7FFF765FF2046FFF764FF33
:100CD000A0E7FFF75FFF2046FFF75EFFAFE710BD1D
:100CE000244A0368904212D002F5006290420ED06E
:100CF000B0F1804F0BD0A2F59832904207D002F5A8
:100D00008062904203D002F5806290421DD14A6811
:100D100023F070031343174A904212D002F5006289
:100D200090420ED0B0F1804F0BD0A2F59832904295
:100D300007D002F58062904203D002F580629042B3
:100D400003D1CA6823F4407313434A6923F0800334
:100D5000134303608B68C3620B688362054B984240
:100D600003D003F50063984201D10B6903630123AB
:100D700043617047002C014010B5044630B390F831
:100D80003D3003F0FF021BB980F83C20FFF7CEFE98
:100D90000223206884F83D30211DFFF7A1FF0123C5
:100DA000002084F8463084F83E3084F83F3084F8E0
:100DB000403084F8413084F8423084F8433084F87D
:100DC000443084F8453084F83D3010BD0120FCE704
:100DD0007047704770474FF0FF3200F10803C0E9D9
:100DE0000223436003610023036070470023036113
:100DF000704743689A684B608A609A68516099604E
:100E00000368086101330360704730B50C68631CE8
:100E10000AD103695A684A6091608B60596003681F
:100E200008610133036030BD00F1080213465268C7
:100E30001568A542FAD9EDE70369D0E901128A6085
:100E400051605968814208BF5A60002202611A68E5
:100E5000013A1A60186870472DE9F041044600F025
:100E6000F1FC344B344D1A68344E01321A602A6852
:100E7000002A54D12C601B68012B2BD13048FFF77E
:100E8000AAFF3048FFF7A7FF2F48FFF7A4FF2F481E
:100E9000FFF7A1FF2E48FFF79EFFDFF8E4802D4803
:100EA000FFF799FF2C4F2D48FFF795FF4046FFF7BE
:100EB00092FF3846FFF78FFF2948FFF78CFF29483C
:100EC000FFF789FF2848FFF786FF284BC3F800800B
:100ED000274B1F60274A28491368086801331360AD
:100EE0000123E26A9340034314200B60144B211D3D
:100EF00000FB0230FFF77DFF00F0C6FC336863B1F2
:100F00002B68DA6AE36A9A4207D24FF080521B4B91
:100F10001A60BFF34F8FBFF36F8FBDE8F081336866
:100F2000002BD7D12B68DA6AE36A9A4298BF2C600B
:100F3000D0E700BF180300208002002074030020C7
:100F40008C020020A0020020B4020020C802002071
:100F5000DC020020F00200204403002004030020F3
:100F6000600300208C03002078030020840200200E
:100F700088020020280300202C03002004ED00E05C
:100F800030030020064A13681968064B19B94FF060
:100F9000FF321A6070471268D268D2685268F8E768
:100FA00084020020580300202DE9F0470746DDE9C0
:100FB000098402F18040266B013806EB80069946D1
:100FC00026F007064B1E04F134020F3113F8010F0F
:100FD00002F8010B187808B18B42F7D1089D4FF049
:100FE000000A062D28BF0625201DC4E9115AE56216
:100FF00084F843A0FFF7FAFEC5F1070504F11800D5
:10100000FFF7F4FEC4F84CA04A4639463046246146
:10101000A561646284F850A000F0F0FB2060B8F194
:10102000000F01D0C8F80040BDE8F08710B590F877
:10103000513004463BB9006B00F078FB2046BDE818
:10104000104000F073BB012BF9D0022B08D04FF0F9
:10105000500383F31188BFF36F8FBFF34F8FFEE709
:1010600010BD000080B5DFF85C80124F124C134DAC
:10107000236863B9124B1B68012BF8D94FF08053DA
:10108000C8F80030BFF34F8FBFF36F8FEEE700F06B
:10109000D9FBFB68DE68301DFFF7CEFE2B68013BF5
:1010A0002B602368013B236000F0EEFB3046FFF726
:1010B000BDFFDDE78C0300201C0300201803002087
:1010C0008C02002004ED00E0F8B51B4B1B4F1C68A0
:1010D000054638680E460430FFF7AEFE3B4640B981
:1010E00039681748CF6A01210268B94022EA010233
:1010F00002606A1C07D136B1196812480431BDE894
:10110000F840FFF776BE1A686419546007D30E4A98
:1011100010681968BDE8F8400431FFF776BE0B4A45
:10112000106819680431FFF770FE094B1A68A24273
:1011300088BF1C60F8BD00BFA00300208002002013
:101140002C03002078030020880200208402002065
:101150005803002070B586B0DDE90B5445B94FF057
:10116000500383F31188BFF36F8FBFF34F8FFEE7F8
:1011700044B94FF0500383F31188BFF36F8FBFF36F
:101180004F8FFEE754260496049E542E08D04FF04D
:10119000500383F31188BFF36F8FBFF34F8FFEE7C8
:1011A0002563022584F8515005AD01950A9D0294EE
:1011B0000095FFF7F9FE2046FFF74EFE059806B0B2
:1011C00070BD2DE9F043074685B09000884616466D
:1011D000994600F021FA0546E8B1542000F01CFAC7
:1011E0000446A8B1002380F851300D9B056301939C
:1011F0000C9B324641460290009338464B46FFF71F
:10120000D3FE2046FFF728FE012005B0BDE8F0839D
:10121000284600F08BFA4FF0FF30F6E710B50024B7
:1012200088B007AA06A905A8CDE90544FFF7ECF8A0
:10123000059B079A0293069B0E49CDE900430E4891
:101240002346FFF787FF90B14FF0500383F31188D7
:10125000BFF36F8FBFF34F8F4FF0FF32074B1A6012
:101260000122074B1A60074B1C6000F073FB08B0AB
:1012700010BD00BFB91A000865100008580300200F
:1012800074030020A0030020024A13680133136096
:10129000704700BF240300202DE9F84F3C4B1B682A
:1012A000002B6ED13B4B1D6801351D60BDB93A4B1B
:1012B0001A68126842B14FF0500383F31188BFF3EC
:1012C0006F8FBFF34F8FFEE7344A196810681860BC
:1012D0001160334A136801331360FFF753FE314E38
:1012E00000243368304FAB4210D9304B1B68DA6AA8
:1012F00014235343FB58022B28BF01242C4B1B689B
:10130000002B0CBF20460120BDE8F88FDFF888A035
:10131000DFF8A490DAF800301B681BB94FF0FF33F8
:101320003360E2E7DAF80030DB68D3F80CB0DBF8C2
:101330000420954201D23260D7E70BF10408404601
:10134000FFF77AFDDBF828201AB10BF11800FFF740
:1013500073FD0122DBF82C00D9F8003082401A43DB
:10136000C9F800201422414602FB0070FFF741FD3E
:101370000E4BDBF82C201968CB6A9A4228BF012457
:10138000C8E70C4A0024136801331360B6E700BFB6
:1013900024030020A00300208402002088020020F3
:1013A0005C030020580300208C02002080020020F3
:1013B000A4030020200300202C0300202DE9F84383
:1013C000304C236843B94FF0500383F31188BFF3C7
:1013D0006F8FBFF34F8FFEE700F034FA2368013BB5
:1013E000236024682CB1002400F04EFA2046BDE8AA
:1013F000F883254B1B68002BF5D0244D244EDFF8D5
:10140000A4801FE0EB680127DC6804F1040904F103
:101410001800FFF711FD4846FFF70EFD1420E26AA1
:10142000316807FA02F30B4300FB02804946336040
:10143000FFF7DFFC174BE26A1B68DB6A9A4201D3B5
:10144000154B1F602B68002BDCD10CB1FFF79AFD08
:10145000124D2C6844B101270F4EFFF71DFF00B15C
:101460003760013CF9D12C600B4B1B68002BBAD0C4
:101470004FF080520A4B1A60BFF34F8FBFF36F8F4C
:101480000124B1E72403002018030020600300209A
:101490002C03002080020020A40300202003002051
:1014A00004ED00E08C02002008B540B94FF08052F6
:1014B0000D4B1A60BFF34F8FBFF36F8F08BD0B4BFF
:1014C000196841B14FF0500383F31188BFF36F8F58
:1014D000BFF34F8FFEE7FFF7D7FEFFF7F5FDFFF7EE
:1014E0006DFF0028E2D0E9E704ED00E024030020CE
:1014F000174B10B51A68174B12B101221A6010BDB4
:101500001A60154B1B68B3FA83F31422DBB2C3F1E4
:101510001F035A4311498C58881844B94FF050039F
:1015200083F31188BFF36F8FBFF34F8FFEE74468DB
:10153000083264680A44944208BF6268446008BF85
:101540004260142202FB03135B68DA68044BD5E7A0
:1015500024030020A40300202C0300208C02002080
:101560008002002008B5FFF759FE002008BD70B5C5
:10157000054646690B46D0E900102A69B5F90840CE
:1015800086B076B1AD6965B1842C0CBF00240334FC
:10159000CDE901650094FFF7DDFD0590059806B0E3
:1015A00070BD842C0CBF0024033405ADCDE900458B
:1015B00092B2FFF706FE0128F0D00020EFE708B551
:1015C000012838BF0120FFF76FFF002008BD000091
:1015D00010B50F4B1A461B688342FBD35468111990
:1015E000884201BF416810460919516044680119D9
:1015F0008B4207D1074909688B421FBF59681B6896
:10160000091941609042036018BF106010BD00BF0F
:10161000B80F0020A80300202DE9F0410446FFF791
:1016200033FE3B4B3B481A689C46D2B900213A4AEC
:101630003A4B55071CBF073222F007021A60596067
:10164000374B23F00703C3E90011991AC2E90031AF
:10165000CCF80030334B1960334B19604FF0004326
:101660000360076827424ED1002C3FD004F10803E5
:1016700061071CBF23F007030833002B43D02A4A1D
:10168000166890469E423ED3244A1568696899427E
:1016900001D22868A8B9DCF80000A84233D0286835
:1016A000C91A10291468106012D9E81842070BD023
:1016B0004FF0500383F31188BFF36F8FBFF34F8F49
:1016C000FEE72A460546E1E741606B60FFF780FFD1
:1016D0006B681449F61A1F4300230868C8F80060B5
:1016E000864238BF0E6008346F602B60FFF766FEDD
:1016F00063070AD04FF0500383F31188BFF36F8F55
:10170000BFF34F8FFEE70024F0E72046BDE8F081ED
:10171000A8030020AC0F0020AC030020B80F00206D
:10172000A40F0020B40F0020B00F002010B5044615
:1017300070B3184A50F8043C1268134208D14FF0B5
:10174000500383F31188BFF36F8FBFF34F8FFEE712
:1017500050F8081C41B14FF0500383F31188BFF3D8
:101760006F8FBFF34F8FFEE723EA020340F8043C7C
:10177000FFF78AFD084A54F8043C1168A4F10800F8
:101780000B441360FFF724FFBDE81040FFF716BEBF
:1017900010BD00BFAC0F0020B00F0020064800684D
:1017A000006880F3088862B661B6BFF34F8FBFF35D
:1017B0006F8F00DF00BF000008ED00E0002382B063
:1017C00001930D4B1B68013308D04FF0500383F396
:1017D0001188BFF36F8FBFF34F8FFEE74FF05003B9
:1017E00083F31188BFF36F8FBFF34F8F019B002BE3
:1017F000FCD002B0704700BF0C0000204FF0807397
:1018000040F8043C054B21F0010140F8081C40F869
:101810000C3C40F8202C4038704700BFBD17000832
:10182000074B19680868B0E8F00F80F30988BFF328
:101830006F8F4FF0000080F311884EF00D0E70474F
:10184000800200204FF0500383F31188BFF36F8FA5
:10185000BFF34F8F0A4A13680133012B13600DD178
:10186000084B1B6813F0FF0F08D04FF0500383F3B1
:101870001188BFF36F8FBFF34F8FFEE7704700BF34
:101880000C00002004ED00E0084A136843B94FF053
:10189000500383F31188BFF36F8FBFF34F8FFEE7C1
:1018A000013B13600BB983F3118870470C000020D3
:1018B000EFF30980BFF36F8F0D4B1A6820E9F00F2B
:1018C00010602DE908404FF0500080F31188FFF7B9
:1018D0000FFE4FF0000080F31188BDE80840196842
:1018E0000868B0E8F00F80F30988BFF36F8F704786
:1018F0008002002008B54FF0500383F31188BFF336
:101900006F8FBFF34F8FFFF7C7FC18B14FF08052B6
:10191000024B1A60002383F3118808BD04ED00E038
:101920000023084A084913600B604FF47A71074B93
:101930001B68B3FBF1F30649013B0B6007231360FF
:10194000704700BF10E000E018E000E00800002051
:1019500014E000E013B5264B00211A78D2B20192B0
:10196000FF221A701B78234ADBB28DF803309DF8F2
:10197000033003F05003137007231F4A13609DF8D0
:1019800003005C1E00060CD411B1032B136011D0B0
:101990004FF0500383F31188BFF36F8FBFF34F8F66
:1019A000FEE79DF8033001215B00DBB28DF80330C8
:1019B0002346E4E74FF4407300241360019B0C4A74
:1019C000DBB213700D4B1A6842F470021A601A6889
:1019D00042F070421A60FFF7A3FF094B1C60FFF74B
:1019E000DDFEFFF785FDFFF7E9FE204602B010BDE2
:1019F00000E400E0C00F0020C40F002020ED00E054
:101A00000C0000200C480D490D4A002302E0D45878
:101A1000C4500433C4188C42F9D30A4A0A4C002338
:101A200001E013600432A242FBD3FFF7D3F9FEF7C3
:101A300023FCFEF7C3FC70470000002010000020CC
:101A4000C81A00081000002018100020FEE700004F
:101A5000F8B500BFF8BC08BC9E467047F8B500BF9B
:081A6000F8BC08BC9E4670476B
:101A6800841A00086103000800000000000000005C
:101A7800800000000000000000000000646566614E
:101A8800756C745461736B0002030405060708093A
:101A98000A0B0C0D0E0F10100000000000000000D3
:101AA8000001020304060708090000000001020300
:081AB8000449444C4500000004
:041AC00059020008BF
:041AC40031020008E3
:101AC80001000000100000000024F400AAAAAAAA3D
:0400000508001A05D0
:00000001FF
